{
	"data": {
		"bytecode": {
			"linkReferences": {},
			"object": "608060405260015f5560015f541460015f6101000a81548160ff021916908315150217905550633b9aca00600255633b9aca006002541460035f6101000a81548160ff021916908315150217905550670de0b6b3a7640000600455670de0b6b3a76400006004541460055f6101000a81548160ff0219169083151502179055503480156089575f80fd5b506102f4806100975f395ff3fe608060405234801561000f575f80fd5b5060043610610091575f3560e01c80638e50b65c116100645780638e50b65c1461010d578063cf0f5d291461012b578063d297a89f14610149578063e2d5606014610167578063fb1669ca1461018557610091565b806312065fe01461009557806328dc556f146100b3578063481499c7146100d15780634fb2e0be146100ef575b5f80fd5b61009d6101a1565b6040516100aa9190610219565b60405180910390f35b6100bb6101aa565b6040516100c8919061024c565b60405180910390f35b6100d96101bc565b6040516100e6919061024c565b60405180910390f35b6100f76101ce565b6040516101049190610219565b60405180910390f35b6101156101d3565b6040516101229190610219565b60405180910390f35b6101336101d9565b604051610140919061024c565b60405180910390f35b6101516101eb565b60405161015e9190610219565b60405180910390f35b61016f6101f1565b60405161017c9190610219565b60405180910390f35b61019f600480360381019061019a9190610293565b6101f7565b005b5f600654905090565b60015f9054906101000a900460ff1681565b60035f9054906101000a900460ff1681565b5f5481565b60025481565b60055f9054906101000a900460ff1681565b60045481565b60065481565b8060068190555050565b5f819050919050565b61021381610201565b82525050565b5f60208201905061022c5f83018461020a565b92915050565b5f8115159050919050565b61024681610232565b82525050565b5f60208201905061025f5f83018461023d565b92915050565b5f80fd5b61027281610201565b811461027c575f80fd5b50565b5f8135905061028d81610269565b92915050565b5f602082840312156102a8576102a7610265565b5b5f6102b58482850161027f565b9150509291505056fea264697066735822122084f45b62584f226068ead03b0ba3ab2e91de14a998c1fd7ec67922547343362d64736f6c634300081a0033",
			"opcodes": "PUSH1 0x80 PUSH1 0x40 MSTORE PUSH1 0x1 PUSH0 SSTORE PUSH1 0x1 PUSH0 SLOAD EQ PUSH1 0x1 PUSH0 PUSH2 0x100 EXP DUP2 SLOAD DUP2 PUSH1 0xFF MUL NOT AND SWAP1 DUP4 ISZERO ISZERO MUL OR SWAP1 SSTORE POP PUSH4 0x3B9ACA00 PUSH1 0x2 SSTORE PUSH4 0x3B9ACA00 PUSH1 0x2 SLOAD EQ PUSH1 0x3 PUSH0 PUSH2 0x100 EXP DUP2 SLOAD DUP2 PUSH1 0xFF MUL NOT AND SWAP1 DUP4 ISZERO ISZERO MUL OR SWAP1 SSTORE POP PUSH8 0xDE0B6B3A7640000 PUSH1 0x4 SSTORE PUSH8 0xDE0B6B3A7640000 PUSH1 0x4 SLOAD EQ PUSH1 0x5 PUSH0 PUSH2 0x100 EXP DUP2 SLOAD DUP2 PUSH1 0xFF MUL NOT AND SWAP1 DUP4 ISZERO ISZERO MUL OR SWAP1 SSTORE POP CALLVALUE DUP1 ISZERO PUSH1 0x89 JUMPI PUSH0 DUP1 REVERT JUMPDEST POP PUSH2 0x2F4 DUP1 PUSH2 0x97 PUSH0 CODECOPY PUSH0 RETURN INVALID PUSH1 0x80 PUSH1 0x40 MSTORE CALLVALUE DUP1 ISZERO PUSH2 0xF JUMPI PUSH0 DUP1 REVERT JUMPDEST POP PUSH1 0x4 CALLDATASIZE LT PUSH2 0x91 JUMPI PUSH0 CALLDATALOAD PUSH1 0xE0 SHR DUP1 PUSH4 0x8E50B65C GT PUSH2 0x64 JUMPI DUP1 PUSH4 0x8E50B65C EQ PUSH2 0x10D JUMPI DUP1 PUSH4 0xCF0F5D29 EQ PUSH2 0x12B JUMPI DUP1 PUSH4 0xD297A89F EQ PUSH2 0x149 JUMPI DUP1 PUSH4 0xE2D56060 EQ PUSH2 0x167 JUMPI DUP1 PUSH4 0xFB1669CA EQ PUSH2 0x185 JUMPI PUSH2 0x91 JUMP JUMPDEST DUP1 PUSH4 0x12065FE0 EQ PUSH2 0x95 JUMPI DUP1 PUSH4 0x28DC556F EQ PUSH2 0xB3 JUMPI DUP1 PUSH4 0x481499C7 EQ PUSH2 0xD1 JUMPI DUP1 PUSH4 0x4FB2E0BE EQ PUSH2 0xEF JUMPI JUMPDEST PUSH0 DUP1 REVERT JUMPDEST PUSH2 0x9D PUSH2 0x1A1 JUMP JUMPDEST PUSH1 0x40 MLOAD PUSH2 0xAA SWAP2 SWAP1 PUSH2 0x219 JUMP JUMPDEST PUSH1 0x40 MLOAD DUP1 SWAP2 SUB SWAP1 RETURN JUMPDEST PUSH2 0xBB PUSH2 0x1AA JUMP JUMPDEST PUSH1 0x40 MLOAD PUSH2 0xC8 SWAP2 SWAP1 PUSH2 0x24C JUMP JUMPDEST PUSH1 0x40 MLOAD DUP1 SWAP2 SUB SWAP1 RETURN JUMPDEST PUSH2 0xD9 PUSH2 0x1BC JUMP JUMPDEST PUSH1 0x40 MLOAD PUSH2 0xE6 SWAP2 SWAP1 PUSH2 0x24C JUMP JUMPDEST PUSH1 0x40 MLOAD DUP1 SWAP2 SUB SWAP1 RETURN JUMPDEST PUSH2 0xF7 PUSH2 0x1CE JUMP JUMPDEST PUSH1 0x40 MLOAD PUSH2 0x104 SWAP2 SWAP1 PUSH2 0x219 JUMP JUMPDEST PUSH1 0x40 MLOAD DUP1 SWAP2 SUB SWAP1 RETURN JUMPDEST PUSH2 0x115 PUSH2 0x1D3 JUMP JUMPDEST PUSH1 0x40 MLOAD PUSH2 0x122 SWAP2 SWAP1 PUSH2 0x219 JUMP JUMPDEST PUSH1 0x40 MLOAD DUP1 SWAP2 SUB SWAP1 RETURN JUMPDEST PUSH2 0x133 PUSH2 0x1D9 JUMP JUMPDEST PUSH1 0x40 MLOAD PUSH2 0x140 SWAP2 SWAP1 PUSH2 0x24C JUMP JUMPDEST PUSH1 0x40 MLOAD DUP1 SWAP2 SUB SWAP1 RETURN JUMPDEST PUSH2 0x151 PUSH2 0x1EB JUMP JUMPDEST PUSH1 0x40 MLOAD PUSH2 0x15E SWAP2 SWAP1 PUSH2 0x219 JUMP JUMPDEST PUSH1 0x40 MLOAD DUP1 SWAP2 SUB SWAP1 RETURN JUMPDEST PUSH2 0x16F PUSH2 0x1F1 JUMP JUMPDEST PUSH1 0x40 MLOAD PUSH2 0x17C SWAP2 SWAP1 PUSH2 0x219 JUMP JUMPDEST PUSH1 0x40 MLOAD DUP1 SWAP2 SUB SWAP1 RETURN JUMPDEST PUSH2 0x19F PUSH1 0x4 DUP1 CALLDATASIZE SUB DUP2 ADD SWAP1 PUSH2 0x19A SWAP2 SWAP1 PUSH2 0x293 JUMP JUMPDEST PUSH2 0x1F7 JUMP JUMPDEST STOP JUMPDEST PUSH0 PUSH1 0x6 SLOAD SWAP1 POP SWAP1 JUMP JUMPDEST PUSH1 0x1 PUSH0 SWAP1 SLOAD SWAP1 PUSH2 0x100 EXP SWAP1 DIV PUSH1 0xFF AND DUP2 JUMP JUMPDEST PUSH1 0x3 PUSH0 SWAP1 SLOAD SWAP1 PUSH2 0x100 EXP SWAP1 DIV PUSH1 0xFF AND DUP2 JUMP JUMPDEST PUSH0 SLOAD DUP2 JUMP JUMPDEST PUSH1 0x2 SLOAD DUP2 JUMP JUMPDEST PUSH1 0x5 PUSH0 SWAP1 SLOAD SWAP1 PUSH2 0x100 EXP SWAP1 DIV PUSH1 0xFF AND DUP2 JUMP JUMPDEST PUSH1 0x4 SLOAD DUP2 JUMP JUMPDEST PUSH1 0x6 SLOAD DUP2 JUMP JUMPDEST DUP1 PUSH1 0x6 DUP2 SWAP1 SSTORE POP POP JUMP JUMPDEST PUSH0 DUP2 SWAP1 POP SWAP2 SWAP1 POP JUMP JUMPDEST PUSH2 0x213 DUP2 PUSH2 0x201 JUMP JUMPDEST DUP3 MSTORE POP POP JUMP JUMPDEST PUSH0 PUSH1 0x20 DUP3 ADD SWAP1 POP PUSH2 0x22C PUSH0 DUP4 ADD DUP5 PUSH2 0x20A JUMP JUMPDEST SWAP3 SWAP2 POP POP JUMP JUMPDEST PUSH0 DUP2 ISZERO ISZERO SWAP1 POP SWAP2 SWAP1 POP JUMP JUMPDEST PUSH2 0x246 DUP2 PUSH2 0x232 JUMP JUMPDEST DUP3 MSTORE POP POP JUMP JUMPDEST PUSH0 PUSH1 0x20 DUP3 ADD SWAP1 POP PUSH2 0x25F PUSH0 DUP4 ADD DUP5 PUSH2 0x23D JUMP JUMPDEST SWAP3 SWAP2 POP POP JUMP JUMPDEST PUSH0 DUP1 REVERT JUMPDEST PUSH2 0x272 DUP2 PUSH2 0x201 JUMP JUMPDEST DUP2 EQ PUSH2 0x27C JUMPI PUSH0 DUP1 REVERT JUMPDEST POP JUMP JUMPDEST PUSH0 DUP2 CALLDATALOAD SWAP1 POP PUSH2 0x28D DUP2 PUSH2 0x269 JUMP JUMPDEST SWAP3 SWAP2 POP POP JUMP JUMPDEST PUSH0 PUSH1 0x20 DUP3 DUP5 SUB SLT ISZERO PUSH2 0x2A8 JUMPI PUSH2 0x2A7 PUSH2 0x265 JUMP JUMPDEST JUMPDEST PUSH0 PUSH2 0x2B5 DUP5 DUP3 DUP6 ADD PUSH2 0x27F JUMP JUMPDEST SWAP2 POP POP SWAP3 SWAP2 POP POP JUMP INVALID LOG2 PUSH5 0x6970667358 0x22 SLT KECCAK256 DUP5 DELEGATECALL JUMPDEST PUSH3 0x584F22 PUSH1 0x68 0xEA 0xD0 EXTCODESIZE SIGNEXTEND LOG3 0xAB 0x2E SWAP2 0xDE EQ 0xA9 SWAP9 0xC1 REVERT PUSH31 0xC67922547343362D64736F6C634300081A0033000000000000000000000000 "
		},
		"gasEstimates": {
			"creation": {
				"codeDepositCost": "151200",
				"executionCost": "145626",
				"totalCost": "296826"
			},
			"external": {
				"balanceInWei()": "2491",
				"getBalance()": "2433",
				"isOneEther()": "2488",
				"isOneGwei()": "2511",
				"isOneWei()": "2489",
				"oneEther()": "2469",
				"oneGwei()": "2425",
				"oneWei()": "2491",
				"setBalance(uint256)": "22603"
			}
		},
		"methodIdentifiers": {
			"balanceInWei()": "e2d56060",
			"getBalance()": "12065fe0",
			"isOneEther()": "cf0f5d29",
			"isOneGwei()": "481499c7",
			"isOneWei()": "28dc556f",
			"oneEther()": "d297a89f",
			"oneGwei()": "8e50b65c",
			"oneWei()": "4fb2e0be",
			"setBalance(uint256)": "fb1669ca"
		}
	},
	"abi": [
		{
			"inputs": [],
			"name": "balanceInWei",
			"outputs": [
				{
					"internalType": "uint256",
					"name": "",
					"type": "uint256"
				}
			],
			"stateMutability": "view",
			"type": "function"
		},
		{
			"inputs": [],
			"name": "getBalance",
			"outputs": [
				{
					"internalType": "uint256",
					"name": "",
					"type": "uint256"
				}
			],
			"stateMutability": "view",
			"type": "function"
		},
		{
			"inputs": [],
			"name": "isOneEther",
			"outputs": [
				{
					"internalType": "bool",
					"name": "",
					"type": "bool"
				}
			],
			"stateMutability": "view",
			"type": "function"
		},
		{
			"inputs": [],
			"name": "isOneGwei",
			"outputs": [
				{
					"internalType": "bool",
					"name": "",
					"type": "bool"
				}
			],
			"stateMutability": "view",
			"type": "function"
		},
		{
			"inputs": [],
			"name": "isOneWei",
			"outputs": [
				{
					"internalType": "bool",
					"name": "",
					"type": "bool"
				}
			],
			"stateMutability": "view",
			"type": "function"
		},
		{
			"inputs": [],
			"name": "oneEther",
			"outputs": [
				{
					"internalType": "uint256",
					"name": "",
					"type": "uint256"
				}
			],
			"stateMutability": "view",
			"type": "function"
		},
		{
			"inputs": [],
			"name": "oneGwei",
			"outputs": [
				{
					"internalType": "uint256",
					"name": "",
					"type": "uint256"
				}
			],
			"stateMutability": "view",
			"type": "function"
		},
		{
			"inputs": [],
			"name": "oneWei",
			"outputs": [
				{
					"internalType": "uint256",
					"name": "",
					"type": "uint256"
				}
			],
			"stateMutability": "view",
			"type": "function"
		},
		{
			"inputs": [
				{
					"internalType": "uint256",
					"name": "mybalence",
					"type": "uint256"
				}
			],
			"name": "setBalance",
			"outputs": [],
			"stateMutability": "nonpayable",
			"type": "function"
		}
	]
}