{
	"level0/task02/classicExample/contracts/Loop.sol": {
		"Loop": {
			"abi": [
				{
					"inputs": [],
					"name": "i",
					"outputs": [
						{
							"internalType": "uint256",
							"name": "",
							"type": "uint256"
						}
					],
					"stateMutability": "view",
					"type": "function"
				},
				{
					"inputs": [],
					"name": "loop",
					"outputs": [],
					"stateMutability": "nonpayable",
					"type": "function"
				}
			],
			"devdoc": {
				"kind": "dev",
				"methods": {},
				"version": 1
			},
			"evm": {
				"assembly": "    /* \"level0/task02/classicExample/contracts/Loop.sol\":58:517  contract Loop {... */\n  mstore(0x40, 0x80)\n  callvalue\n  dup1\n  iszero\n  tag_1\n  jumpi\n  0x00\n  dup1\n  revert\ntag_1:\n  pop\n  dataSize(sub_0)\n  dup1\n  dataOffset(sub_0)\n  0x00\n  codecopy\n  0x00\n  return\nstop\n\nsub_0: assembly {\n        /* \"level0/task02/classicExample/contracts/Loop.sol\":58:517  contract Loop {... */\n      mstore(0x40, 0x80)\n      callvalue\n      dup1\n      iszero\n      tag_1\n      jumpi\n      0x00\n      dup1\n      revert\n    tag_1:\n      pop\n      jumpi(tag_2, lt(calldatasize, 0x04))\n      shr(0xe0, calldataload(0x00))\n      dup1\n      0xa92100cb\n      eq\n      tag_3\n      jumpi\n      dup1\n      0xe5aa3d58\n      eq\n      tag_4\n      jumpi\n    tag_2:\n      0x00\n      dup1\n      revert\n        /* \"level0/task02/classicExample/contracts/Loop.sol\":101:515  function loop() public {... */\n    tag_3:\n      tag_5\n      tag_6\n      jump\t// in\n    tag_5:\n      stop\n        /* \"level0/task02/classicExample/contracts/Loop.sol\":78:94  uint256 public i */\n    tag_4:\n      tag_7\n      tag_8\n      jump\t// in\n    tag_7:\n      mload(0x40)\n      tag_9\n      swap2\n      swap1\n      tag_10\n      jump\t// in\n    tag_9:\n      mload(0x40)\n      dup1\n      swap2\n      sub\n      swap1\n      return\n        /* \"level0/task02/classicExample/contracts/Loop.sol\":101:515  function loop() public {... */\n    tag_6:\n        /* \"level0/task02/classicExample/contracts/Loop.sol\":163:164  0 */\n      0x00\n        /* \"level0/task02/classicExample/contracts/Loop.sol\":159:160  i */\n      dup1\n        /* \"level0/task02/classicExample/contracts/Loop.sol\":159:164  i = 0 */\n      dup2\n      swap1\n      sstore\n      pop\n        /* \"level0/task02/classicExample/contracts/Loop.sol\":154:415  for (i = 0; i < 10; i++) {... */\n    tag_12:\n        /* \"level0/task02/classicExample/contracts/Loop.sol\":170:172  10 */\n      0x0a\n        /* \"level0/task02/classicExample/contracts/Loop.sol\":166:167  i */\n      sload(0x00)\n        /* \"level0/task02/classicExample/contracts/Loop.sol\":166:172  i < 10 */\n      lt\n        /* \"level0/task02/classicExample/contracts/Loop.sol\":154:415  for (i = 0; i < 10; i++) {... */\n      iszero\n      tag_13\n      jumpi\n        /* \"level0/task02/classicExample/contracts/Loop.sol\":202:203  3 */\n      0x03\n        /* \"level0/task02/classicExample/contracts/Loop.sol\":197:198  i */\n      sload(0x00)\n        /* \"level0/task02/classicExample/contracts/Loop.sol\":197:203  i == 3 */\n      sub\n        /* \"level0/task02/classicExample/contracts/Loop.sol\":193:302  if (i == 3) {... */\n      iszero\n        /* \"level0/task02/classicExample/contracts/Loop.sol\":279:287  continue */\n      tag_14\n        /* \"level0/task02/classicExample/contracts/Loop.sol\":193:302  if (i == 3) {... */\n      jumpi\n        /* \"level0/task02/classicExample/contracts/Loop.sol\":324:325  5 */\n      0x05\n        /* \"level0/task02/classicExample/contracts/Loop.sol\":319:320  i */\n      sload(0x00)\n        /* \"level0/task02/classicExample/contracts/Loop.sol\":319:325  i == 5 */\n      sub\n        /* \"level0/task02/classicExample/contracts/Loop.sol\":315:405  if (i == 5) {... */\n      iszero\n        /* \"level0/task02/classicExample/contracts/Loop.sol\":385:390  break */\n      tag_13\n        /* \"level0/task02/classicExample/contracts/Loop.sol\":315:405  if (i == 5) {... */\n      jumpi\n        /* \"level0/task02/classicExample/contracts/Loop.sol\":154:415  for (i = 0; i < 10; i++) {... */\n    tag_14:\n        /* \"level0/task02/classicExample/contracts/Loop.sol\":174:175  i */\n      0x00\n      dup1\n        /* \"level0/task02/classicExample/contracts/Loop.sol\":174:177  i++ */\n      dup2\n      sload\n      dup1\n      swap3\n      swap2\n      swap1\n      tag_17\n      swap1\n      tag_18\n      jump\t// in\n    tag_17:\n      swap2\n      swap1\n      pop\n      sstore\n      pop\n        /* \"level0/task02/classicExample/contracts/Loop.sol\":154:415  for (i = 0; i < 10; i++) {... */\n      jump(tag_12)\n    tag_13:\n        /* \"level0/task02/classicExample/contracts/Loop.sol\":447:456  uint256 j */\n      0x00\n        /* \"level0/task02/classicExample/contracts/Loop.sol\":466:509  while (j < 10) {... */\n    tag_19:\n        /* \"level0/task02/classicExample/contracts/Loop.sol\":477:479  10 */\n      0x0a\n        /* \"level0/task02/classicExample/contracts/Loop.sol\":473:474  j */\n      dup2\n        /* \"level0/task02/classicExample/contracts/Loop.sol\":473:479  j < 10 */\n      lt\n        /* \"level0/task02/classicExample/contracts/Loop.sol\":466:509  while (j < 10) {... */\n      iszero\n      tag_20\n      jumpi\n        /* \"level0/task02/classicExample/contracts/Loop.sol\":495:498  j++ */\n      dup1\n      dup1\n      tag_21\n      swap1\n      tag_18\n      jump\t// in\n    tag_21:\n      swap2\n      pop\n      pop\n        /* \"level0/task02/classicExample/contracts/Loop.sol\":466:509  while (j < 10) {... */\n      jump(tag_19)\n    tag_20:\n        /* \"level0/task02/classicExample/contracts/Loop.sol\":124:515  {... */\n      pop\n        /* \"level0/task02/classicExample/contracts/Loop.sol\":101:515  function loop() public {... */\n      jump\t// out\n        /* \"level0/task02/classicExample/contracts/Loop.sol\":78:94  uint256 public i */\n    tag_8:\n      sload(0x00)\n      dup2\n      jump\t// out\n        /* \"#utility.yul\":7:84   */\n    tag_22:\n        /* \"#utility.yul\":44:51   */\n      0x00\n        /* \"#utility.yul\":73:78   */\n      dup2\n        /* \"#utility.yul\":62:78   */\n      swap1\n      pop\n        /* \"#utility.yul\":7:84   */\n      swap2\n      swap1\n      pop\n      jump\t// out\n        /* \"#utility.yul\":90:208   */\n    tag_23:\n        /* \"#utility.yul\":177:201   */\n      tag_28\n        /* \"#utility.yul\":195:200   */\n      dup2\n        /* \"#utility.yul\":177:201   */\n      tag_22\n      jump\t// in\n    tag_28:\n        /* \"#utility.yul\":172:175   */\n      dup3\n        /* \"#utility.yul\":165:202   */\n      mstore\n        /* \"#utility.yul\":90:208   */\n      pop\n      pop\n      jump\t// out\n        /* \"#utility.yul\":214:436   */\n    tag_10:\n        /* \"#utility.yul\":307:311   */\n      0x00\n        /* \"#utility.yul\":345:347   */\n      0x20\n        /* \"#utility.yul\":334:343   */\n      dup3\n        /* \"#utility.yul\":330:348   */\n      add\n        /* \"#utility.yul\":322:348   */\n      swap1\n      pop\n        /* \"#utility.yul\":358:429   */\n      tag_30\n        /* \"#utility.yul\":426:427   */\n      0x00\n        /* \"#utility.yul\":415:424   */\n      dup4\n        /* \"#utility.yul\":411:428   */\n      add\n        /* \"#utility.yul\":402:408   */\n      dup5\n        /* \"#utility.yul\":358:429   */\n      tag_23\n      jump\t// in\n    tag_30:\n        /* \"#utility.yul\":214:436   */\n      swap3\n      swap2\n      pop\n      pop\n      jump\t// out\n        /* \"#utility.yul\":442:622   */\n    tag_24:\n        /* \"#utility.yul\":490:567   */\n      0x4e487b7100000000000000000000000000000000000000000000000000000000\n        /* \"#utility.yul\":487:488   */\n      0x00\n        /* \"#utility.yul\":480:568   */\n      mstore\n        /* \"#utility.yul\":587:591   */\n      0x11\n        /* \"#utility.yul\":584:585   */\n      0x04\n        /* \"#utility.yul\":577:592   */\n      mstore\n        /* \"#utility.yul\":611:615   */\n      0x24\n        /* \"#utility.yul\":608:609   */\n      0x00\n        /* \"#utility.yul\":601:616   */\n      revert\n        /* \"#utility.yul\":628:861   */\n    tag_18:\n        /* \"#utility.yul\":667:670   */\n      0x00\n        /* \"#utility.yul\":690:714   */\n      tag_33\n        /* \"#utility.yul\":708:713   */\n      dup3\n        /* \"#utility.yul\":690:714   */\n      tag_22\n      jump\t// in\n    tag_33:\n        /* \"#utility.yul\":681:714   */\n      swap2\n      pop\n        /* \"#utility.yul\":736:802   */\n      0xffffffffffffffffffffffffffffffffffffffffffffffffffffffffffffffff\n        /* \"#utility.yul\":729:734   */\n      dup3\n        /* \"#utility.yul\":726:803   */\n      sub\n        /* \"#utility.yul\":723:826   */\n      tag_34\n      jumpi\n        /* \"#utility.yul\":806:824   */\n      tag_35\n      tag_24\n      jump\t// in\n    tag_35:\n        /* \"#utility.yul\":723:826   */\n    tag_34:\n        /* \"#utility.yul\":853:854   */\n      0x01\n        /* \"#utility.yul\":846:851   */\n      dup3\n        /* \"#utility.yul\":842:855   */\n      add\n        /* \"#utility.yul\":835:855   */\n      swap1\n      pop\n        /* \"#utility.yul\":628:861   */\n      swap2\n      swap1\n      pop\n      jump\t// out\n\n    auxdata: 0xa2646970667358221220d43f117ab55b0307ddbc9627a9f9f097b44b9f247488c7d4edf3dced613f2d8664736f6c634300081a0033\n}\n",
				"bytecode": {
					"linkReferences": {},
					"object": "6080604052348015600e575f80fd5b506101a28061001c5f395ff3fe608060405234801561000f575f80fd5b5060043610610034575f3560e01c8063a92100cb14610038578063e5aa3d5814610042575b5f80fd5b610040610060565b005b61004a6100c2565b60405161005791906100df565b60405180910390f35b5f80819055505b600a5f5410156100a15760035f5403156100865760055f5403156100a1575b5f8081548092919061009790610125565b9190505550610067565b5f5b600a8110156100bf5780806100b790610125565b9150506100a3565b50565b5f5481565b5f819050919050565b6100d9816100c7565b82525050565b5f6020820190506100f25f8301846100d0565b92915050565b7f4e487b71000000000000000000000000000000000000000000000000000000005f52601160045260245ffd5b5f61012f826100c7565b91507fffffffffffffffffffffffffffffffffffffffffffffffffffffffffffffffff8203610161576101606100f8565b5b60018201905091905056fea2646970667358221220d43f117ab55b0307ddbc9627a9f9f097b44b9f247488c7d4edf3dced613f2d8664736f6c634300081a0033",
					"opcodes": "PUSH1 0x80 PUSH1 0x40 MSTORE CALLVALUE DUP1 ISZERO PUSH1 0xE JUMPI PUSH0 DUP1 REVERT JUMPDEST POP PUSH2 0x1A2 DUP1 PUSH2 0x1C PUSH0 CODECOPY PUSH0 RETURN INVALID PUSH1 0x80 PUSH1 0x40 MSTORE CALLVALUE DUP1 ISZERO PUSH2 0xF JUMPI PUSH0 DUP1 REVERT JUMPDEST POP PUSH1 0x4 CALLDATASIZE LT PUSH2 0x34 JUMPI PUSH0 CALLDATALOAD PUSH1 0xE0 SHR DUP1 PUSH4 0xA92100CB EQ PUSH2 0x38 JUMPI DUP1 PUSH4 0xE5AA3D58 EQ PUSH2 0x42 JUMPI JUMPDEST PUSH0 DUP1 REVERT JUMPDEST PUSH2 0x40 PUSH2 0x60 JUMP JUMPDEST STOP JUMPDEST PUSH2 0x4A PUSH2 0xC2 JUMP JUMPDEST PUSH1 0x40 MLOAD PUSH2 0x57 SWAP2 SWAP1 PUSH2 0xDF JUMP JUMPDEST PUSH1 0x40 MLOAD DUP1 SWAP2 SUB SWAP1 RETURN JUMPDEST PUSH0 DUP1 DUP2 SWAP1 SSTORE POP JUMPDEST PUSH1 0xA PUSH0 SLOAD LT ISZERO PUSH2 0xA1 JUMPI PUSH1 0x3 PUSH0 SLOAD SUB ISZERO PUSH2 0x86 JUMPI PUSH1 0x5 PUSH0 SLOAD SUB ISZERO PUSH2 0xA1 JUMPI JUMPDEST PUSH0 DUP1 DUP2 SLOAD DUP1 SWAP3 SWAP2 SWAP1 PUSH2 0x97 SWAP1 PUSH2 0x125 JUMP JUMPDEST SWAP2 SWAP1 POP SSTORE POP PUSH2 0x67 JUMP JUMPDEST PUSH0 JUMPDEST PUSH1 0xA DUP2 LT ISZERO PUSH2 0xBF JUMPI DUP1 DUP1 PUSH2 0xB7 SWAP1 PUSH2 0x125 JUMP JUMPDEST SWAP2 POP POP PUSH2 0xA3 JUMP JUMPDEST POP JUMP JUMPDEST PUSH0 SLOAD DUP2 JUMP JUMPDEST PUSH0 DUP2 SWAP1 POP SWAP2 SWAP1 POP JUMP JUMPDEST PUSH2 0xD9 DUP2 PUSH2 0xC7 JUMP JUMPDEST DUP3 MSTORE POP POP JUMP JUMPDEST PUSH0 PUSH1 0x20 DUP3 ADD SWAP1 POP PUSH2 0xF2 PUSH0 DUP4 ADD DUP5 PUSH2 0xD0 JUMP JUMPDEST SWAP3 SWAP2 POP POP JUMP JUMPDEST PUSH32 0x4E487B7100000000000000000000000000000000000000000000000000000000 PUSH0 MSTORE PUSH1 0x11 PUSH1 0x4 MSTORE PUSH1 0x24 PUSH0 REVERT JUMPDEST PUSH0 PUSH2 0x12F DUP3 PUSH2 0xC7 JUMP JUMPDEST SWAP2 POP PUSH32 0xFFFFFFFFFFFFFFFFFFFFFFFFFFFFFFFFFFFFFFFFFFFFFFFFFFFFFFFFFFFFFFFF DUP3 SUB PUSH2 0x161 JUMPI PUSH2 0x160 PUSH2 0xF8 JUMP JUMPDEST JUMPDEST PUSH1 0x1 DUP3 ADD SWAP1 POP SWAP2 SWAP1 POP JUMP INVALID LOG2 PUSH5 0x6970667358 0x22 SLT KECCAK256 0xD4 EXTCODEHASH GT PUSH27 0xB55B0307DDBC9627A9F9F097B44B9F247488C7D4EDF3DCED613F2D DUP7 PUSH5 0x736F6C6343 STOP ADDMOD BYTE STOP CALLER "
				},
				"gasEstimates": {
					"creation": {
						"codeDepositCost": "83600",
						"executionCost": "133",
						"totalCost": "83733"
					},
					"external": {
						"i()": "2424",
						"loop()": "infinite"
					}
				},
				"methodIdentifiers": {
					"i()": "e5aa3d58",
					"loop()": "a92100cb"
				}
			},
			"storageLayout": {
				"storage": [
					{
						"astId": 3,
						"contract": "level0/task02/classicExample/contracts/Loop.sol:Loop",
						"label": "i",
						"offset": 0,
						"slot": "0",
						"type": "t_uint256"
					}
				],
				"types": {
					"t_uint256": {
						"encoding": "inplace",
						"label": "uint256",
						"numberOfBytes": "32"
					}
				}
			},
			"userdoc": {
				"kind": "user",
				"methods": {},
				"version": 1
			}
		}
	}
}