{
  "_format": "hh3-artifact-1",
  "contractName": "TodoList",
  "sourceName": "contracts/TodoList.sol",
  "abi": [
    {
      "inputs": [],
      "stateMutability": "nonpayable",
      "type": "constructor"
    },
    {
      "anonymous": false,
      "inputs": [
        {
          "indexed": false,
          "internalType": "uint256",
          "name": "id",
          "type": "uint256"
        },
        {
          "indexed": false,
          "internalType": "string",
          "name": "taskname",
          "type": "string"
        },
        {
          "indexed": false,
          "internalType": "bool",
          "name": "status",
          "type": "bool"
        }
      ],
      "name": "TaskCreated",
      "type": "event"
    },
    {
      "anonymous": false,
      "inputs": [
        {
          "indexed": false,
          "internalType": "uint256",
          "name": "id",
          "type": "uint256"
        },
        {
          "indexed": false,
          "internalType": "bool",
          "name": "status",
          "type": "bool"
        }
      ],
      "name": "TaskStatus",
      "type": "event"
    },
    {
      "inputs": [
        {
          "internalType": "string",
          "name": "_taskname",
          "type": "string"
        }
      ],
      "name": "createTask",
      "outputs": [],
      "stateMutability": "nonpayable",
      "type": "function"
    },
    {
      "inputs": [],
      "name": "taskCount",
      "outputs": [
        {
          "internalType": "uint256",
          "name": "",
          "type": "uint256"
        }
      ],
      "stateMutability": "view",
      "type": "function"
    },
    {
      "inputs": [
        {
          "internalType": "uint256",
          "name": "",
          "type": "uint256"
        }
      ],
      "name": "tasks",
      "outputs": [
        {
          "internalType": "uint256",
          "name": "id",
          "type": "uint256"
        },
        {
          "internalType": "string",
          "name": "taskname",
          "type": "string"
        },
        {
          "internalType": "bool",
          "name": "status",
          "type": "bool"
        }
      ],
      "stateMutability": "view",
      "type": "function"
    },
    {
      "inputs": [
        {
          "internalType": "uint256",
          "name": "_id",
          "type": "uint256"
        }
      ],
      "name": "toggleStatus",
      "outputs": [],
      "stateMutability": "nonpayable",
      "type": "function"
    }
  ],
  "bytecode": "0x60806040525f5f55348015610012575f5ffd5b50604080518082019091526012815271151bd91bc8131a5cdd08151d5d1bdc9a585b60721b60208201526100459061004a565b6102b7565b5f80549080610058836100fc565b9091555050604080516060810182525f805480835260208084018681528486018490529183526001908190529390912082518155905191929091908201906100a090826101b8565b50604091820151600291909101805460ff19169115159190911790555f805491517f05d0fb833127fc08168556d0e7ca9554fc3f6bc843b3b7d2bf1c35aea6bab660926100f1929091859190610272565b60405180910390a150565b5f6001820161011957634e487b7160e01b5f52601160045260245ffd5b5060010190565b634e487b7160e01b5f52604160045260245ffd5b600181811c9082168061014857607f821691505b60208210810361016657634e487b7160e01b5f52602260045260245ffd5b50919050565b601f8211156101b357805f5260205f20601f840160051c810160208510156101915750805b601f840160051c820191505b818110156101b0575f815560010161019d565b50505b505050565b81516001600160401b038111156101d1576101d1610120565b6101e5816101df8454610134565b8461016c565b6020601f821160018114610217575f83156102005750848201515b5f19600385901b1c1916600184901b1784556101b0565b5f84815260208120601f198516915b828110156102465787850151825560209485019460019092019101610226565b508482101561026357868401515f19600387901b60f8161c191681555b50505050600190811b01905550565b838152606060208201525f83518060608401528060208601608085015e5f608082850101526080601f19601f8301168401019150508215156040830152949350505050565b61061e806102c45f395ff3fe608060405234801561000f575f5ffd5b506004361061004a575f3560e01c8063111002aa1461004e57806351db2e76146100635780638d97767214610076578063b6cb58a5146100a1575b5f5ffd5b61006161005c366004610376565b6100b7565b005b610061610071366004610429565b610169565b610089610084366004610429565b6102b8565b60405161009893929190610440565b60405180910390f35b6100a95f5481565b604051908152602001610098565b5f805490806100c583610485565b9091555050604080516060810182525f8054808352602080840186815284860184905291835260019081905293909120825181559051919290919082019061010d908261052d565b50604091820151600291909101805460ff19169115159190911790555f805491517f05d0fb833127fc08168556d0e7ca9554fc3f6bc843b3b7d2bf1c35aea6bab6609261015e929091859190610440565b60405180910390a150565b5f81815260016020818152604080842081516060810190925280548252928301805491939284019161019a906104a9565b80601f01602080910402602001604051908101604052809291908181526020018280546101c6906104a9565b80156102115780601f106101e857610100808354040283529160200191610211565b820191905f5260205f20905b8154815290600101906020018083116101f457829003601f168201915b50505091835250506002919091015460ff161515602091820152604080830180511590525f8581526001808452919020835181559183015192935083929082019061025c908261052d565b50604091820151600291909101805460ff191691151591909117905581810151815184815290151560208201527faccf26a040a80e6a25119cb39da293ff807081080159d2c6db82f9c60077ea4c910160405180910390a15050565b600160208190525f9182526040909120805491810180546102d8906104a9565b80601f0160208091040260200160405190810160405280929190818152602001828054610304906104a9565b801561034f5780601f106103265761010080835404028352916020019161034f565b820191905f5260205f20905b81548152906001019060200180831161033257829003601f168201915b5050506002909301549192505060ff1683565b634e487b7160e01b5f52604160045260245ffd5b5f60208284031215610386575f5ffd5b813567ffffffffffffffff81111561039c575f5ffd5b8201601f810184136103ac575f5ffd5b803567ffffffffffffffff8111156103c6576103c6610362565b604051601f8201601f19908116603f0116810167ffffffffffffffff811182821017156103f5576103f5610362565b60405281815282820160200186101561040c575f5ffd5b816020840160208301375f91810160200191909152949350505050565b5f60208284031215610439575f5ffd5b5035919050565b838152606060208201525f83518060608401528060208601608085015e5f608082850101526080601f19601f8301168401019150508215156040830152949350505050565b5f600182016104a257634e487b7160e01b5f52601160045260245ffd5b5060010190565b600181811c908216806104bd57607f821691505b6020821081036104db57634e487b7160e01b5f52602260045260245ffd5b50919050565b601f82111561052857805f5260205f20601f840160051c810160208510156105065750805b601f840160051c820191505b81811015610525575f8155600101610512565b50505b505050565b815167ffffffffffffffff81111561054757610547610362565b61055b8161055584546104a9565b846104e1565b6020601f82116001811461058d575f83156105765750848201515b5f19600385901b1c1916600184901b178455610525565b5f84815260208120601f198516915b828110156105bc578785015182556020948501946001909201910161059c565b50848210156105d957868401515f19600387901b60f8161c191681555b50505050600190811b0190555056fea2646970667358221220717fcf6861dd1028b16e6fd956a18563e96ebbe030cdac2641d3f0c19a54934164736f6c634300081c0033",
  "linkReferences": {},
  "deployedLinkReferences": {},
  "immutableReferences": {},
  "inputSourceName": "project/contracts/TodoList.sol",
  "buildInfoId": "solc-0_8_28-7a9e7fc72eb16f04ccefec85a28d7a542032e25a"
}